:020000040800F2
:100000001042002029020008D91B0008A31900088B
:10001000D51B0008E9060008A52000080000000024
:10002000000000000000000000000000F11C0008BB
:10003000CB07000800000000DB1B0008F31C0008D1
:10004000430200084302000843020008430200087C
:10005000430200084302000843020008430200086C
:100060004302000843020008CD07000843020008CD
:10007000430200084302000843020008430200084C
:10008000430200084302000843020008430200083C
:10009000430200084302000843020008D707000893
:1000A000430200084302000843020008430200081C
:1000B000430200084302000843020008430200080C
:1000C00043020008430200084302000843020008FC
:1000D00043020008430200084302000843020008EC
:1000E00043020008430200084302000843020008DC
:1000F00043020008430200084302000843020008CC
:1001000043020008430200084302000843020008BB
:1001100043020008430200084302000843020008AB
:10012000430200084302000843020008430200089B
:10013000430200084302000843020008430200088B
:10014000430200084302000843020008430200087B
:10015000430200084302000843020008430200086B
:10016000430200084302000843020008430200085B
:100170004302000843020008430200080000000098
:10018000430200084302000800F002F800F03CF8C7
:100190000AA090E8000C82448344AAF10107DA45E2
:1001A00001D100F031F8AFF2090EBAE80F0013F0F8
:1001B000010F18BFFB1A43F001031847B0210000DC
:1001C000D0210000103A24BF78C878C1FAD852076D
:1001D00024BF30C830C144BF04680C6070470000C1
:1001E0000023002400250026103A28BF78C1FBD840
:1001F000520728BF30C148BF0B6070471FB502F0DF
:100200009FF81FBD10B510BD00F0CFF81146FFF7E5
:10021000F5FF02F073F800F0EDF803B4FFF7F2FF1A
:1002200003BC00F0F5F80000094880470948004782
:10023000FEE7FEE7FEE7FEE7FEE7FEE7FEE7FEE796
:10024000FEE7FEE704480549054A064B70470000F3
:10025000B11D000889010008100200201042002092
:10026000102200201022002053EA020C00F06980C6
:100270002DE9F04B4FF00006002B1FBFB3FA83F5BA
:1002800003FA05F424FA05F65E4012BF1643B2FAEB
:1002900082F502FA05F4C5F120051EBF22FA05FC1D
:1002A00044EA0C04203556EA044C4FEA144418BFC3
:1002B000641C4FF000084FF00009904271EB030CF2
:1002C00039D3002919BFB1FA81F701FA07F6B0FA5C
:1002D00080F700FA07F6C7F120071EBF20FA07FCD7
:1002E00046EA0C062037B6FBF4FCA7EB0507103FE7
:1002F00007F01F0BCBF120060CFA0BFB2CFA06F6CD
:1003000044BFB3460026202FA4BF5E464FF0000B2B
:100310005BEA060C08BF4FF0010B19EB0B09ABFBB6
:10032000027C48EB0608C01B06FB02CC0BFB03CC8F
:1003300071EB0C01C1E70B46024641464846BDE859
:10034000F08B13B54FF000004FF00001AFF30080C9
:10035000BDE81C4070474FF0000200B513469446BC
:100360009646203922BFA0E80C50A0E80C50B1F10D
:100370002001BFF4F7AF090728BFA0E80C5048BF21
:100380000CC05DF804EB890028BF40F8042B08BFBF
:10039000704748BF20F8022B11F0804F18BF00F8BB
:1003A000012B7047704770477047754600F02CF876
:1003B000AE4605006946534620F00700854618B052
:1003C00020B5FFF73FFFBDE820404FF000064FF09B
:1003D00000074FF000084FF0000B21F00701AC467A
:1003E000ACE8C009ACE8C009ACE8C009ACE8C00999
:1003F0008D46704710B50446AFF300802046BDE837
:100400001040FFF70ABF000000487047B00100200D
:1004100001491820ABBEFEE726000200704700002D
:1004200010B501221021024800F076FB10BD00003B
:100430000000024010B500221021024800F06CFBC1
:1004400010BD0000000002407047000010B50122FE
:100450001146024800F060FB10BD0000000402409D
:1004600010B500220121024800F056FB10BD00002B
:1004700000040240704710B5044603E04FF47A7060
:1004800000F006F8201EA4F101018CB2F6D110BDD7
:1004900070B5034600BF00BF0020002200BF4FF030
:1004A000E0267569A82603FB06F44FF0E026B16943
:1004B00010E04FF0E026B06988420BD0884202D2AB
:1004C0000E1A324402E02E1A0E4432440146A24271
:1004D00000D300E0EDE700BF70BD10B50024FFF7CA
:1004E000B3FFFFF7C7FF01F0FBFD044301F08CFEF3
:1004F0000443204610BD00002DE9FC4105460E4690
:100500001746002000900190FFF794FF922000F022
:10051000D1F806226946122000F0ACF8FFF780FF00
:100520009DF80100000200B29DF8001040EA0104AD
:1005300000EE104AB8EEC00A4C48D0ED000A20EE9A
:10054000200A86ED000A9DF80300000200B29DF823
:10055000021040EA010400EE104AB8EEC00A434817
:10056000D0ED000A20EE200A86ED010A9DF8050074
:10057000000200B29DF8041040EA010400EE104AA7
:10058000B8EEC00A3948D0ED000A20EE200A86ED08
:10059000020AFFF765FF08226946002000F06AF8AA
:1005A000FFF754FF9DF800000F2838D19DF8030095
:1005B000000200B29DF8021040EA010400EE104A69
:1005C000B8EEC00A2A48D0ED000A20EE200A85EDD8
:1005D000000A9DF80500000200B29DF8041040EAF0
:1005E000010400EE104AB8EEC00A2148D0ED000A1E
:1005F00020EE200A85ED010A9DF80700000200B2F6
:100600009DF8061040EA010400EE104AB8EEC00A58
:100610001748D0ED000A20EE200A85ED020AFFF708
:1006200009FFA22000F046F802226946222000F0CD
:1006300021F8FFF7F5FE9DF80000C0009DF80110BD
:1006400040EA6114B4F5806F02DBA4F5006004B2E7
:1006500000EE104AF8EEC00AB4EE001AB3EE070A34
:1006600000EE810A87ED000ABDE8FC81140000203D
:100670001800002070B506460C46154646F080006E
:1006800000F018F806E0552000F014F82070641C03
:10069000681EC5B2002DF6D170BD70B504460D467A
:1006A00044F0800000F006F8552000F003F82870B0
:1006B00070BD000001B582B04FF47A70012301AA29
:1006C00002A90090024800F037FF9DF804000EBD1B
:1006D0005800002070B505460C462846FFF7EAFF93
:1006E0002046FFF7E7FF70BD00BFFEE70146087830
:1006F00010381823B0FBF3F20848805CC865032A61
:1007000005D908686FF30900001D886503E00868D3
:100710006FF309008865886D704700004A23000860
:10072000014600208A6A8B69CBB932B1012A0DD00B
:10073000022A03D0032A10D10EE000BFCB6A03F0D7
:100740008073B3F1807F00D1012007E0CB6AB3F161
:10075000C07F00D1012001E000E000BF34E08B69E0
:10076000B3F5005F1AD132B1012A07D0022A03D0B3
:10077000032A11D10AE000BF01200EE0CB6A03F08A
:100780008073B3F1807F00D1012006E0CB6AB3F122
:10079000C07F00D1012000E000BF15E032B1012A86
:1007A00005D0022A04D0032A0CD103E000BF00BF09
:1007B000012008E0CB6A03F08073B3F1807F00D1A1
:1007C000012000E000BF00BF7047704710B5102047
:1007D00000F094F810BD10B5202000F08FF810BD87
:1007E000704700002DE9F0410446002500F09AF919
:1007F000074614B90120BDE8F081606A00B100BF6E
:1008000000BF002084F8340000BF022084F83500C7
:100810002068006820F00100216808600AE000F00C
:1008200081F9C01B052805D920206065032084F8C4
:100830003500E0E72068006800F001000028EED1F4
:100840002068056821480540D4E901010843E168B2
:1008500008432169084361690843A1690843E169C4
:100860000843216A08430543606A042803D1D4E998
:100870000B0108430543206805602068456925F0A1
:100880000705606A0543606A04280DD1A06A054324
:10089000E06A48B12046FFF743FF28B14020606579
:1008A000012084F83500A6E7206845612046FFF75F
:1008B0001DFF064694F85C103F208840B060002081
:1008C0006065012084F83500002094E73F8010F037
:1008D00070B5044600F026F906462546681C10B19E
:1008E00004480078054400BF00F01CF9801BA842B2
:1008F000FAD370BD0C0000207047000010B504460C
:1009000004480068204020B1024804602046FFF7F8
:10091000F3FF10BD143C0140F8B502460B4600251C
:10092000002400200021DCE0012606FA01F51E6803
:1009300006EA0504AC4273D15E68022E02D05E68FE
:10094000122E13D1CF0802F1200656F827004E07C9
:10095000F70E0F26BE40B0434F07FF0E1E69BE4084
:100960003043CF0802F1200646F8270010684F00F8
:100970000326BE40B0431E7906F003064F00BE407A
:10098000304310605E68012E08D05E68022E05D0EC
:100990005E68112E02D05E68122E13D190684F004F
:1009A0000326BE40B0434F00DE68BE403043906037
:1009B000506801268E40B0431E79C6F300168E4063
:1009C00030435060D0684F000326BE40B0434F0014
:1009D0009E68BE403043D0605E6806F08056B6F137
:1009E000805F7DD100BF00260096404E366846F4F9
:1009F00080463E4F3E603E46366806F4804600968E
:100A000000BF00BF3A4E8F0856F827008E07370FF9
:100A10000F26BE40B043374EB24202D1002624E03A
:100A20005EE0354EB24201D101261EE0334EB242A5
:100A300001D1022619E0324EB24201D1032614E060
:100A4000304EB24201D104260FE02F4EB24201D106
:100A500005260AE02D4EB24201D1062605E02C4EB5
:100A6000B24201D1072600E008268F073F0FBE40A3
:100A700030431F4E8F0846F82700264E3068A043AB
:100A80005E6806F48036B6F5803F00D12043214EE3
:100A90003060361D3068A0435E6806F40036B6F557
:100AA000003F00D120431B4E361D3060361D30689C
:100AB000A0435E6806F48016B6F5801F00D120437F
:100AC000144E08363060361D3068A0435E6806F468
:100AD0000016B6F5001F00D120430E4E0C363060D4
:100AE000491C1029FFF420AFF8BD00004438024033
:100AF00008380140000002400004024000080240A3
:100B0000000C024000100240001402400018024095
:100B1000001C0240003C01400AB1816101E00B046D
:100B2000836170470148006870470000040000209E
:100B30000348006803490978084401490860704780
:100B4000040000200C00002010B50D48006840F49F
:100B500000700B4908600846006840F48060086037
:100B60000846006840F480700860032000F0A2F896
:100B7000002000F007F800F02BF8002010BD000066
:100B8000003C024070B504460E4800784FF47A717C
:100B9000B1FBF0F00C490968B1FBF0F5284600F014
:100BA000E0FD08B1012070BD102C07D200222146C3
:100BB000501E00F041F80548046001E00120F2E712
:100BC0000020F0E70C0000201000002008000020AA
:100BD00008B500BF002000900E48006840F4804037
:100BE0000C4908600846006800F48040009000BF8F
:100BF00000BF00BF00200090081F006840F0805038
:100C0000091F08600846006800F08050009000BF8F
:100C100000BF08BD4438024001460846002809DBF1
:100C200000F01F0301229A4043099B0003F1E023D7
:100C3000C3F8002100BF70472DE9F05F80460D46E4
:100C40001646002701F030FA074639462A46334651
:100C500001F00700C0F1070ABAF1040F02D94FF002
:100C6000040A01E0C0F1070AD14600F1040ABAF112
:100C7000070F02D24FF0000A01E0A0F1030AD446A8
:100C80004FF0010A0AFA09FAAAF1010A0AEA020A6D
:100C90000AFA0CFA4FF0010B0BFA0CFBABF1010B4B
:100CA0000BEA030B4AEA0B042146404601F004FA22
:100CB000BDE8F09F00BF00F00702064B19684FF631
:100CC000FF031940044B0B4343EA0221014B196017
:100CD00000BF70470CED00E00000FA0570B5044657
:100CE0000D460CB9012070BD5848006800F00F0097
:100CF000A84209D255490D700846006800F00F005F
:100D0000A84201D00120EEE7207800F0020002287E
:100D10001DD1207800F00400042805D14C4800685B
:100D200040F4E0504A490860207800F008000828A4
:100D300005D14748006840F4604045490860444890
:100D4000006820F0F000A16808434149086020785D
:100D500000F00100A8B36068012807D13C480838BA
:100D60000068C0F34040B8B90120BCE760680228C1
:100D700002D06068032807D1354808380068C0F3FE
:100D8000406048B90120AEE7314808380068C0F338
:100D9000400008B90120A6E72D48006820F00300B4
:100DA000616808432A490860FFF7BCFE064609E06F
:100DB000FFF7B8FE801B41F28831884202D9032038
:100DC00091E707E02248006800F00C006168B0EB92
:100DD000810FEDD11D48006800F00F00A84209D92D
:100DE0001A490D700846006800F00F00A84201D0B3
:100DF000012078E7207800F00400042807D1144887
:100E0000006820F4E050E168084311490860207848
:100E100000F00800082808D10D48006820F4604060
:100E2000216940EAC1000A49086000F017F8084942
:100E30000968C1F30311074A515CC84006490860BC
:100E40000020FFF79FFE00204DE70000003C02401D
:100E50000838024052230008100000202DE9F04716
:100E6000002400250026A1462548006800F00C005B
:100E700020B1042805D008283AD105E0DFF8849095
:100E800039E0DFF8849036E01D48001F006800F06C
:100E90003F041B48001F006800F4800078B11A4826
:100EA0001749091F0968C1F38811A0FB01700146A9
:100EB000224600233846FFF7D7F905460EE01148D1
:100EC0000F49091F0968C1F38811A0FB0170014691
:100ED000224600233846FFF7C7F905460848001F99
:100EE0000068C0F30140401C4600B5FBF6F902E083
:100EF000DFF8109000BF00BF4846BDE8F087000053
:100F0000083802400024F400001BB700F8B504467E
:100F10000CB90120F8BD207800F00100002874D041
:100F2000F948006800F00C0004280DD0F64800686D
:100F300000F00C00082813D1F348001F006800F4EB
:100F40008000B0F5800F0BD1EF4808380068C0F37F
:100F50004040002859D06068002856D10120D9E7C8
:100F600000BF6068B0F5803F08D1E74808380068E6
:100F700040F48030E449083908601EE06068B0F54C
:100F8000A02F0DD1E0480838006840F48020DE49E9
:100F9000083908600846006840F4803008600CE0BA
:100FA000D9480838006820F48030D74908390860EB
:100FB0000846006820F48020086000BF606890B197
:100FC000FFF7B0FD054606E0FFF7ACFD401B6428C7
:100FD00001D903209EE7CC4808380068C0F34040A0
:100FE0000028F1D011E0FFF79DFD054606E0FFF770
:100FF00099FD401B642801D903208BE7C2480838BB
:101000000068C0F340400028F1D1207800F00200D1
:1010100002285FD1BC48006800F00C0058B1BA4803
:10102000006800F00C0008281CD1B748001F0068B9
:1010300000F48000B0B9B44808380068C0F340003C
:1010400020B1E068012801D0012063E7AE480838EC
:10105000006820F0F800216940EAC100AA49083977
:10106000086037E0E06800B30120A8490860FFF796
:1010700059FD054606E0FFF755FD401B022801D942
:10108000032047E7A04808380068C0F34000002864
:10109000F1D09D480838006820F0F800216940EA46
:1010A000C10099490839086014E000209749086098
:1010B000FFF738FD054606E0FFF734FD401B022828
:1010C00001D9032026E7904808380068C0F34000A3
:1010D0000028F1D1207800F0080008282CD16069A0
:1010E000A8B101208A490860FFF71CFD054606E00B
:1010F000FFF718FD401B022801D903200AE78248A8
:101100006C300068C0F340000028F1D014E00020EB
:101110007F490860FFF706FD054606E0FFF702FD80
:10112000401B022801D90320F4E677486C300068A0
:10113000C0F340000028F1D1207800F0040004281A
:1011400070D1002670483830006800F0805090B9A7
:1011500000BF002000906C483830006840F080509C
:101160006949383108600846006800F080500090F6
:1011700000BF00BF01266748006800F48070B0B966
:101180006448006840F4807062490860FFF7CAFC58
:10119000054606E0FFF7C6FC401B022801D90320E4
:1011A000B8E65C48006800F480700028F2D000BF08
:1011B000A068012808D154486830006840F0010058
:1011C0005149683108601DE0A06805280DD14E48DE
:1011D0006830006840F004004B49683108600846F8
:1011E000006840F0010008600CE047486830006883
:1011F00020F001004449683108600846006820F08A
:101200000400086000BFA068A8B1FFF78BFC05468A
:1012100009E0FFF787FC401B41F28831884202D980
:10122000032077E626E0384868300068C0F34000C5
:101230000028EED013E0FFF775FC054608E0FFF745
:1012400071FC401B41F28831884201D9032061E6DC
:101250002D4868300068C0F340000028EFD1012E0F
:1012600007D129483830006820F0805026493831AD
:10127000086000BFA069B8B32348006800F00C0004
:1012800008285ED0A069022846D100201F490866C0
:10129000FFF748FC054606E0FFF744FC401B022828
:1012A00001D9032036E6184808380068C0F34060CA
:1012B0000028F1D1D4E907010843616A40EA8111AD
:1012C0000122A06AC2EB500041EA00412C20005DDF
:1012D00041EA00600C49091F086001200B490866BB
:1012E000FFF720FC054607E02DE0FFF71BFC401B45
:1012F000022801D903200DE6034808380068C0F32E
:1013000040600028F1D01EE008380240000047424B
:10131000800E47420070004000200C490866FFF72D
:1013200001FC054606E0FFF7FDFB401B022801D942
:101330000320EFE506480068C0F340600028F2D1C2
:1013400001E00120E6E50020E4E50000000047425E
:101350000038024010B504460CB9012010BD606A87
:1013600000B900BF0021A16294F8510028B9002003
:1013700084F85000204600F033F8022084F8510031
:101380002068006820F0400021680860D4E901016D
:101390000843E16808432169084361690843218BD8
:1013A00001F400710843E1690843216A0843A16A16
:1013B0000843216808600421A06901EA1040616ABD
:1013C0000843216848602068C06920F400602168F3
:1013D000C86100206065012084F851000020BDE74D
:1013E00010B586B00446142101A8FEF7B4FF4B499E
:1013F000206888427ED100BF0020009048480068E5
:1014000040F48050464908600846006800F4805067
:10141000009000BF00BF00BF00200090404814387B
:10142000006840F002003E49143908600846006830
:1014300000F00200009000BF00BF00BF002000903D
:101440000846006840F0010008600846006800F0A7
:101450000100009000BF00BF182001900220029000
:1014600000200390032004900520059001A92D4839
:10147000FFF752FA80200190022002900020039092
:10148000032004900520059001A92748FFF744FA9E
:101490002648274908604FF0C06048600021244872
:1014A0008160C1604FF4806101610021416181610F
:1014B000C1614FF44031016200214162FFF792F9AE
:1014C00008B1FFF78DF900BF1948E064846300BFDD
:1014D00016481830174908604FF0C0604860402136
:1014E000144881600021C1604FF4806101610021D6
:1014F000416100E010E08161C1614FF4003101629F
:1015000000214162FFF76EF908B1FFF769F900BFEA
:101510000848A064846300BF06B010BD00300140DD
:10152000443802400004024000000240406402408F
:10153000B0000020100100202DE9FF5F044688461E
:1015400091461D460E9E012002900020019000BF92
:1015500094F85000012803D1022004B0BDE8F09FA8
:10156000012084F8500000BFFFF7DCFA074694F82A
:1015700051B060680390AA46BBF1010F0BD00398ED
:10158000B0F5827F04D1A06810B9BBF1040F02D07E
:1015900002200190DBE0B8F1000F03D0B9F1000F99
:1015A00000D015B901200190D1E094F85100042831
:1015B00002D0052084F8510000206065C4F83890FE
:1015C000E587A587C4F83080E586A5862064606439
:1015D0002068006800F04000402805D020680068BE
:1015E00040F0400021680860E068B0F5006F4AD123
:1015F000606810B1BAF1010F09D1206B0088216831
:10160000C860206B801C2063E08E401EE08633E0C3
:101610002068806800F00200022810D1E08E70B1CE
:10162000029801280BD1206B00882168C860206BCC
:10163000801C2063E08E401EE0860020029020681F
:10164000806800F0010068B1E08F58B12068C06880
:10165000A16B0880A06B801CA063E08F401EE08718
:1016600001200290FFF75EFAC01BB04204D3701C49
:1016700010B1032001906AE0E08E0028C8D1E08F0D
:101680000028C5D14AE0606810B1BAF1010F09D154
:10169000206B007821680873206B401C2063E08E6B
:1016A000401EE08634E02068806800F002000228D6
:1016B00010D1E08E70B1029801280BD1206B007818
:1016C00021680873206B401C2063E08E401EE0867A
:1016D000002002902068806800F0010068B1E08F6F
:1016E00058B12068C068A16B0870A06B401CA06353
:1016F000E08F401EE08701200290FFF713FAC01B25
:10170000B04201D3701C00B916B9032001901EE04D
:10171000E08E0028C7D1E08F0028C4D13A46314678
:10172000204600F05BFA20B1012001902020606586
:101730000DE0A06850B900BF002000902068C0688C
:10174000009020688068009000BF00BF00BF0120AB
:1017500084F8510000BF002084F8500000BF0198B9
:10176000FBE670B504462546681EB0F1807F01D3C4
:1017700001200FE0681E4FF0E02148610F214FF07B
:10178000FF3000F099FC00204FF0E0218861072035
:101790000861002070BD10B504460CB9012010BDD1
:1017A00094F83D0028B9002084F83C00204600F061
:1017B0000DF8022084F83D00211D206800F02AFB6E
:1017C000012084F83D000020E9E7000008B50A4A3E
:1017D000016891420FD100BF0021009107490968BB
:1017E00041F40031054A11601146096801F40031E5
:1017F000009100BF00BF08BD0044014044380240D2
:1018000010B586B00446142101A8FEF7A4FD1249C4
:10181000206888421DD100BF002000900F4800685A
:1018200040F020000D4908600846006800F02000E4
:10183000009000BF00BF40200190022002900120D4
:101840000390022004900320059001A90448FFF7AB
:1018500063F806B010BD000000440140303802407B
:101860000014024070B504460D46164600BF94F8B9
:101870003C00012801D1022070BD012084F83C0009
:1018800000BF022084F83D0036B1042E1BD0082E84
:1018900031D00C2E5ED145E02946206800F026FBB1
:1018A0002068806940F008002168886120688069AC
:1018B00020F0040021688861206880692969084354
:1018C0002168886147E02946206800F047FB2068CE
:1018D000806940F40060216888612068806920F494
:1018E00080602168886120688069296940EA012058
:1018F000216888612FE02946206800F06DFB206890
:10190000C06940F008002168C8612068C06920F003
:1019100004002168C8612068C069296908432168FA
:10192000C86118E02946206800F092FB2068C06971
:1019300040F400602168C8612068C06920F48060BC
:101940002168C8612068C069296940EA01202168CE
:10195000C86100E000BF00BF012084F83D0000BF67
:10196000002084F83C0000BF00BF85E710B50446A6
:101970000CB9012010BD94F83D0028B9002084F86E
:101980003C00204600F00CF8022084F83D00211DA8
:10199000206800F03FFA012084F83D000020E9E7CC
:1019A000704700BFFEE7000008B500BF00200090B0
:1019B0000E48006840F480000C4908600846006842
:1019C00000F48000009000BF00BF002205213A20F3
:1019D000FFF732F93A20FFF71FF9002211463B20AA
:1019E000FFF72AF93B20FFF717F908BD303802400E
:1019F00000B587B0142102A8FEF7ADFC00BF00209F
:101A000001904248006840F00200404908600846E2
:101A1000006800F00200019000BF00BF00BF00207E
:101A200001900846006840F0010008600846006820
:101A300000F00100019000BF00BF00BF0020019036
:101A40000846006840F0800008600846006800F022
:101A50008000019000BF00BF00BF00200190084639
:101A6000006840F0200008600846006800F0200090
:101A7000019000BF00BF00BF002001900846006831
:101A800040F0040008600846006800F0040001907F
:101A900000BF00BF012210211D48FFF73DF80122C1
:101AA00011461C48FFF738F81020029001200390DF
:101AB00004900220059002A91548FEF72DFF302062
:101AC0000290154803900120049002A91348FEF7E4
:101AD00023FF01200290039004900220059002A9A8
:101AE0000C48FEF719FF002211460A20FFF7A4F860
:101AF0000A20FFF791F8002211461720FFF79CF803
:101B00001720FFF789F807B000BD00003038024009
:101B100000000240000402400000211000080240C2
:101B200010B50F480F4908604FF4827048600021DB
:101B30000C488160C16002210161012141614902BB
:101B400081613821C16100210162416281620A2103
:101B5000C162FFF7FFFB08B1FEF742FE10BD0000B7
:101B6000003001405800002000B587B01C216846B5
:101B7000FEF7F1FB15481649086000204860002177
:101B80001348816041F28731C160002101618161A8
:101B9000FFF701FE08B1FEF723FE0D48FFF7E6FE52
:101BA00008B1FEF71DFE6020009000200190029019
:101BB0000490002269460648FFF754FE08B1FEF77C
:101BC0000FFE0348FFF71CFE07B000BD00440140B4
:101BD0007001002000BFFEE7704770477CB50446E7
:101BE0000D461646164800681821B0FBF1F015495D
:101BF000B0FBF1F04FF47A71484301906068B0F5A2
:101C0000827F0DD12B46002280212046009600F0D5
:101C10001BF898B1606D40F02000606503207CBD2A
:101C200000BF019800B908E00198401E01902068AB
:101C30008068C0F3C0100028F3D100BF0020EEE799
:101C40001000002040420F002DE9F04104460E46EE
:101C500017461D46DDF818803EE0681CD8B3FEF735
:101C600061FFA0EB0800A84200D2A5BB2068406835
:101C700020F0E000216848606068B0F5827F0DD1F7
:101C8000A068B0F5004F03D0A068B0F5806F05D113
:101C90002068006820F0400021680860A06AB0F564
:101CA000005F0DD100BF2068006820F4005021685B
:101CB00008602068006840F400502168086000BF98
:101CC000012084F8510000BF002084F8500000BFBC
:101CD0000320BDE8F081FFE7206880683040B04213
:101CE00001D1012000E00020B842B6D10020F0E789
:101CF000704710B5FEF71CFF10BD000000B593B093
:101D0000302107A8FEF727FB142102A8FEF723FBCA
:101D100000BF002001902448006840F08050224914
:101D200008600846006800F08050019000BF00BFC6
:101D300000BF002001901D48006840F480401B490E
:101D400008600846006800F48040019000BF00BFB2
:101D5000012007900004089002200D9041050E918B
:101D600006210F91A82110910221119107211291B2
:101D700007A8FFF7CBF808B1FEF732FD0F2002905D
:101D800002200390002004904FF4A05005904FF4DF
:101D900080500690052102A8FEF7A0FF08B1FEF7CB
:101DA0001FFD13B000BD000040380240007000402D
:101DB0001448006840F47000124908601248006836
:101DC00040F001001049086000200F490831086008
:101DD0000D4800680D4908400B4908600C48091D72
:101DE0000860081F006820F48020091F0860002098
:101DF00005490C3108604FF00060024980390860E5
:101E00007047000088ED00E000380240FFFFF6FE5A
:101E10001030002410B50268294B98420ED0B0F162
:101E2000804F0BD0274B984208D0274B984205D0C3
:101E3000264B984202D0264B984203D122F07002E2
:101E40004B681A431E4B984220D0B0F1804F1DD0F2
:101E50001C4B98421AD01C4B984217D01B4B9842EF
:101E600014D01B4B984211D01A4B98420ED01A4BEB
:101E700098420BD0194B984208D0194B984205D084
:101E8000184B984202D0184B984203D122F440726A
:101E9000CB681A4322F080034C6943EA04020260D3
:101EA0008B68C3620B688362054B984202D0084B73
:101EB000984201D10B6903630123436110BD000007
:101EC000000001400004004000080040000C0040F9
:101ED000000401400040014000440140004801402E
:101EE00000180040001C00400020004030B5056A8A
:101EF00025F001050562026A4368846924F07004D4
:101F000024F003040D682C4322F002028D682A435A
:101F1000104DA84200D103E00F4DA84206D100BFEA
:101F200022F00802CD682A4322F00402094DA8429B
:101F300002D0094DA84207D123F4807323F4007323
:101F40004D692B438D692B43436084614D68456324
:101F5000026230BD000001400004014030B5056A56
:101F600025F010050562026A4368846924F4E044A0
:101F700024F440740D6844EA052422F020028D68A0
:101F800042EA0512124DA84200D103E0114DA842C9
:101F900007D100BF22F08002CD6842EA051222F08C
:101FA00040020B4DA84202D00A4DA84209D123F4A9
:101FB000806323F400634D6943EA85038D6943EA36
:101FC0008503436084614D688563026230BD000013
:101FD000000001400004014030B5056A25F4807519
:101FE0000562026A4368C46924F0700424F00304A3
:101FF0000D682C4322F400728D6842EA0522124DCE
:10200000A84200D103E0114DA84207D100BF22F43D
:102010000062CD6842EA052222F480620A4DA8429D
:1020200002D00A4DA84209D123F4805323F400536F
:102030004D6943EA05138D6943EA05134360C461A2
:102040004D68C563026230BD0000014000040140DC
:1020500030B5056A25F480550562036A4468C26993
:1020600022F4E04222F440720D6842EA052223F491
:1020700000538D6843EA0533084DA84202D0084D4D
:10208000A84204D124F480444D6944EA8514446094
:10209000C2614D680564036230BD0000000001406C
:1020A0000004014000BFFEE702480068C0F30220C0
:1020B000704700000CED00E010B5002804DB0A07B3
:1020C000130E054A135406E00A07140E034A00F0E3
:1020D0000F031B1FD45410BD00E400E018ED00E016
:1020E00070B500250024FEF7A5F98020FEF7E2FA7E
:1020F0005520FEF7DFFA5520FEF7DCFA0546FEF71D
:102100008FF99620FEF7C4F9FEF794F98020FEF7C8
:10211000D1FA5520FEF7CEFA5520FEF7CBFA054648
:10212000FEF77EF99620FEF7B3F9FEF783F9B621A4
:102130007E20FEF7CFFAFEF773F95020FEF79BF9E9
:10214000FEF778F98020FEF7B5FA5520FEF7B2FACF
:102150005520FEF7AFFA0546FEF762F99620FEF726
:1021600097F9FEF767F98020FEF7A4FA5520FEF7ED
:10217000A1FA5520FEF79EFA0546FEF751F9962082
:10218000FEF786F91E2D01D0FF2070BD002434E03B
:10219000FEF750F904EB44021A4B1A44517804EB51
:1021A0004402985CFEF796FAFEF73AF99620FEF79D
:1021B0006FF9FEF73FF904EB4401124A515C41F01C
:1021C0008000FEF777FA5520FEF774FA5520FEF7E7
:1021D00071FA0546FEF724F99620FEF759F904EB4B
:1021E0004400084908444078A84204D004EB440065
:1021F00008448078C9E7601CC4B2062CC8DB002004
:10220000C3E700001C00002038B500240020009027
:10221000FEF726F969460020FEF73FFAFEF716F9A9
:102220009620FEF735F9FEF71BF969460020FEF708
:1022300034FAFEF70BF99620FEF72AF9FEF710F9AB
:10224000B6211420FEF746FAFEF700F95020FEF7FB
:1022500012F9FEF705F969460020FEF71EFAFEF7AF
:10226000F5F89620FEF714F9FEF7FAF86946002013
:10227000FEF713FAFEF7EAF89620FEF709F99DF843
:1022800000000F2801D0FF2038BD00242FE0FEF70A
:10229000E7F804EB4402184B1A44517804EB44026B
:1022A000985CFEF717FAFEF7D1F89620FEF7F0F8E3
:1022B000FEF7D6F804EB44010F4A505C6946FEF77E
:1022C000ECF9FEF7C3F89620FEF7E2F804EB4400C1
:1022D0000949084440789DF80010884205D004EB75
:1022E0004400054908448078CEE7601CC4B2062C3F
:1022F000CDDB0020C8E700002E000020FEF724FC04
:10230000FFF7FCFCFFF774FBFFF74EFBFFF708FC41
:10231000FFF72AFC00BFFEF7E0F80028FBD107E03A
:10232000044A05490548FEF7E7F80A20FEF7D0FA07
:10233000F6E70000000000204C00002040000020D4
:102340004FF04070E1EE100A7047000610160006CC
:102350001016000000000000000001020304060740
:102360000809000000000102030400008C2300089B
:102370000000002040000000C4010008CC23000839
:1023800040000020D0410000E001000800000000F3
:102390000000000010000000010000000024F40014
:1023A000E7416B3A58A08B3A7D04017C000240ABB8
:1023B000034100055308065804070F00081082095E
:0C23C00011000A15800B16000C18010D0E
:040000050800018965
:00000001FF
